{
  "address": "0x3569d10634f43CfBf3CcFE306223651933b13e73",
  "abi": [
    {
      "inputs": [
        {
          "internalType": "address",
          "name": "_feeToSetter",
          "type": "address"
        }
      ],
      "stateMutability": "nonpayable",
      "type": "constructor"
    },
    {
      "anonymous": false,
      "inputs": [
        {
          "indexed": true,
          "internalType": "contract IERC20",
          "name": "token0",
          "type": "address"
        },
        {
          "indexed": true,
          "internalType": "contract IERC20",
          "name": "token1",
          "type": "address"
        },
        {
          "indexed": false,
          "internalType": "address",
          "name": "pool",
          "type": "address"
        },
        {
          "indexed": false,
          "internalType": "uint32",
          "name": "ampBps",
          "type": "uint32"
        },
        {
          "indexed": false,
          "internalType": "uint256",
          "name": "totalPool",
          "type": "uint256"
        }
      ],
      "name": "PoolCreated",
      "type": "event"
    },
    {
      "anonymous": false,
      "inputs": [
        {
          "indexed": false,
          "internalType": "address",
          "name": "feeTo",
          "type": "address"
        },
        {
          "indexed": false,
          "internalType": "uint16",
          "name": "governmentFeeBps",
          "type": "uint16"
        }
      ],
      "name": "SetFeeConfiguration",
      "type": "event"
    },
    {
      "anonymous": false,
      "inputs": [
        {
          "indexed": false,
          "internalType": "address",
          "name": "feeToSetter",
          "type": "address"
        }
      ],
      "name": "SetFeeToSetter",
      "type": "event"
    },
    {
      "inputs": [
        {
          "internalType": "uint256",
          "name": "",
          "type": "uint256"
        }
      ],
      "name": "allPools",
      "outputs": [
        {
          "internalType": "address",
          "name": "",
          "type": "address"
        }
      ],
      "stateMutability": "view",
      "type": "function"
    },
    {
      "inputs": [],
      "name": "allPoolsLength",
      "outputs": [
        {
          "internalType": "uint256",
          "name": "",
          "type": "uint256"
        }
      ],
      "stateMutability": "view",
      "type": "function"
    },
    {
      "inputs": [
        {
          "internalType": "contract IERC20",
          "name": "tokenA",
          "type": "address"
        },
        {
          "internalType": "contract IERC20",
          "name": "tokenB",
          "type": "address"
        },
        {
          "internalType": "uint32",
          "name": "ampBps",
          "type": "uint32"
        }
      ],
      "name": "createPool",
      "outputs": [
        {
          "internalType": "address",
          "name": "pool",
          "type": "address"
        }
      ],
      "stateMutability": "nonpayable",
      "type": "function"
    },
    {
      "inputs": [],
      "name": "feeToSetter",
      "outputs": [
        {
          "internalType": "address",
          "name": "",
          "type": "address"
        }
      ],
      "stateMutability": "view",
      "type": "function"
    },
    {
      "inputs": [],
      "name": "getFeeConfiguration",
      "outputs": [
        {
          "internalType": "address",
          "name": "_feeTo",
          "type": "address"
        },
        {
          "internalType": "uint16",
          "name": "_governmentFeeBps",
          "type": "uint16"
        }
      ],
      "stateMutability": "view",
      "type": "function"
    },
    {
      "inputs": [
        {
          "internalType": "contract IERC20",
          "name": "token0",
          "type": "address"
        },
        {
          "internalType": "contract IERC20",
          "name": "token1",
          "type": "address"
        },
        {
          "internalType": "uint256",
          "name": "index",
          "type": "uint256"
        }
      ],
      "name": "getPoolAtIndex",
      "outputs": [
        {
          "internalType": "address",
          "name": "pool",
          "type": "address"
        }
      ],
      "stateMutability": "view",
      "type": "function"
    },
    {
      "inputs": [
        {
          "internalType": "contract IERC20",
          "name": "token0",
          "type": "address"
        },
        {
          "internalType": "contract IERC20",
          "name": "token1",
          "type": "address"
        }
      ],
      "name": "getPools",
      "outputs": [
        {
          "internalType": "address[]",
          "name": "_tokenPools",
          "type": "address[]"
        }
      ],
      "stateMutability": "view",
      "type": "function"
    },
    {
      "inputs": [
        {
          "internalType": "contract IERC20",
          "name": "token0",
          "type": "address"
        },
        {
          "internalType": "contract IERC20",
          "name": "token1",
          "type": "address"
        }
      ],
      "name": "getPoolsLength",
      "outputs": [
        {
          "internalType": "uint256",
          "name": "",
          "type": "uint256"
        }
      ],
      "stateMutability": "view",
      "type": "function"
    },
    {
      "inputs": [
        {
          "internalType": "contract IERC20",
          "name": "",
          "type": "address"
        },
        {
          "internalType": "contract IERC20",
          "name": "",
          "type": "address"
        }
      ],
      "name": "getUnamplifiedPool",
      "outputs": [
        {
          "internalType": "address",
          "name": "",
          "type": "address"
        }
      ],
      "stateMutability": "view",
      "type": "function"
    },
    {
      "inputs": [
        {
          "internalType": "contract IERC20",
          "name": "token0",
          "type": "address"
        },
        {
          "internalType": "contract IERC20",
          "name": "token1",
          "type": "address"
        },
        {
          "internalType": "address",
          "name": "pool",
          "type": "address"
        }
      ],
      "name": "isPool",
      "outputs": [
        {
          "internalType": "bool",
          "name": "",
          "type": "bool"
        }
      ],
      "stateMutability": "view",
      "type": "function"
    },
    {
      "inputs": [
        {
          "internalType": "address",
          "name": "_feeTo",
          "type": "address"
        },
        {
          "internalType": "uint16",
          "name": "_governmentFeeBps",
          "type": "uint16"
        }
      ],
      "name": "setFeeConfiguration",
      "outputs": [],
      "stateMutability": "nonpayable",
      "type": "function"
    },
    {
      "inputs": [
        {
          "internalType": "address",
          "name": "_feeToSetter",
          "type": "address"
        }
      ],
      "name": "setFeeToSetter",
      "outputs": [],
      "stateMutability": "nonpayable",
      "type": "function"
    }
  ],
  "transactionHash": "0x349236bd4509e757683b75e85cafa2b5a4d19679a0be804cc0d977bd85bed14d",
  "args": [
    "0x7e31BBf761C360cDf9887133E650c4f5989b4A16"
  ],
  "numDeployments": 1,
  "solcInputHash": "14f14d9fe89e453eddb0455134ce8023",
  "bytecode": "0x608060405234801561001057600080fd5b50604051615ee3380380615ee38339818101604052602081101561003357600080fd5b5051600180546001600160a01b0319166001600160a01b03909216919091179055615e80806100636000396000f3fe60806040523480156200001157600080fd5b5060043610620000e85760003560e01c806365da9289116200008d578063ad5cb2e11162000063578063ad5cb2e11462000369578063eb787f6114620003a6578063efde4e64146200040257620000e8565b806365da928914620002a05780638fd6484014620002e6578063a2e74af6146200033357620000e8565b806341d1de9711620000c357806341d1de9714620001a0578063538633df14620001c05780635b1dc86f146200021057620000e8565b8063094b741514620000ed5780632900909d14620001205780633d82497e1462000162575b600080fd5b620000f76200040c565b6040805173ffffffffffffffffffffffffffffffffffffffff9092168252519081900360200190f35b62000160600480360360408110156200013857600080fd5b50803573ffffffffffffffffffffffffffffffffffffffff16906020013561ffff1662000428565b005b620000f7600480360360408110156200017a57600080fd5b5073ffffffffffffffffffffffffffffffffffffffff81358116916020013516620005f9565b620000f760048036036020811015620001b857600080fd5b50356200062c565b620001fe60048036036040811015620001d857600080fd5b5073ffffffffffffffffffffffffffffffffffffffff8135811691602001351662000661565b60408051918252519081900360200190f35b6200024e600480360360408110156200022857600080fd5b5073ffffffffffffffffffffffffffffffffffffffff81358116916020013516620006a9565b60408051602080825283518183015283519192839290830191858101910280838360005b838110156200028c57818101518382015260200162000272565b505050509050019250505060405180910390f35b620000f760048036036060811015620002b857600080fd5b5073ffffffffffffffffffffffffffffffffffffffff813581169160208101359091169060400135620007c1565b620000f760048036036060811015620002fe57600080fd5b50803573ffffffffffffffffffffffffffffffffffffffff908116916020810135909116906040013563ffffffff1662000809565b62000160600480360360208110156200034b57600080fd5b503573ffffffffffffffffffffffffffffffffffffffff1662000d51565b6200037362000e51565b6040805173ffffffffffffffffffffffffffffffffffffffff909316835261ffff90911660208301528051918290030190f35b620003ee60048036036060811015620003be57600080fd5b5073ffffffffffffffffffffffffffffffffffffffff813581169160208101358216916040909101351662000e8c565b604080519115158252519081900360200190f35b620001fe62000ecc565b60015473ffffffffffffffffffffffffffffffffffffffff1681565b60015473ffffffffffffffffffffffffffffffffffffffff163314620004af57604080517f08c379a000000000000000000000000000000000000000000000000000000000815260206004820152600e60248201527f444d4d3a20464f5242494444454e000000000000000000000000000000000000604482015290519081900360640190fd5b60008161ffff16118015620004c957506107d08161ffff16105b6200053557604080517f08c379a000000000000000000000000000000000000000000000000000000000815260206004820152601060248201527f444d4d3a20494e56414c49442046454500000000000000000000000000000000604482015290519081900360640190fd5b6000805461ffff83167401000000000000000000000000000000000000000081027fffffffffffffffffffff0000ffffffffffffffffffffffffffffffffffffffff73ffffffffffffffffffffffffffffffffffffffff87167fffffffffffffffffffffffff00000000000000000000000000000000000000009094168417161790925560408051918252602082019290925281517fce65ee4e1b50c25affcecb736ecf577b5c46ff900efade2a6214267a8707628e929181900390910190a15050565b600360209081526000928352604080842090915290825290205473ffffffffffffffffffffffffffffffffffffffff1681565b600481815481106200063a57fe5b60009182526020909120015473ffffffffffffffffffffffffffffffffffffffff16905081565b73ffffffffffffffffffffffffffffffffffffffff80831660009081526002602090815260408083209385168352929052908120620006a09062000ed2565b90505b92915050565b73ffffffffffffffffffffffffffffffffffffffff8083166000908152600260209081526040808320938516835292905290812060609190620006ec9062000ed2565b90508067ffffffffffffffff811180156200070657600080fd5b5060405190808252806020026020018201604052801562000731578160200160208202803683370190505b50915060005b81811015620007b95773ffffffffffffffffffffffffffffffffffffffff80861660009081526002602090815260408083209388168352929052206200077e908262000edf565b8382815181106200078b57fe5b73ffffffffffffffffffffffffffffffffffffffff9092166020928302919091019091015260010162000737565b505092915050565b73ffffffffffffffffffffffffffffffffffffffff8084166000908152600260209081526040808320938616835292905290812062000801908362000edf565b949350505050565b60008273ffffffffffffffffffffffffffffffffffffffff168473ffffffffffffffffffffffffffffffffffffffff161415620008a757604080517f08c379a000000000000000000000000000000000000000000000000000000000815260206004820152601860248201527f444d4d3a204944454e544943414c5f4144445245535345530000000000000000604482015290519081900360640190fd5b6000808473ffffffffffffffffffffffffffffffffffffffff168673ffffffffffffffffffffffffffffffffffffffff1610620008e6578486620008e9565b85855b909250905073ffffffffffffffffffffffffffffffffffffffff82166200097157604080517f08c379a000000000000000000000000000000000000000000000000000000000815260206004820152601160248201527f444d4d3a205a45524f5f41444452455353000000000000000000000000000000604482015290519081900360640190fd5b6127108463ffffffff161015620009e957604080517f08c379a000000000000000000000000000000000000000000000000000000000815260206004820152601060248201527f444d4d3a20494e56414c49445f42505300000000000000000000000000000000604482015290519081900360640190fd5b6127108463ffffffff1614158062000a33575073ffffffffffffffffffffffffffffffffffffffff8281166000908152600360209081526040808320858516845290915290205416155b62000a9f57604080517f08c379a000000000000000000000000000000000000000000000000000000000815260206004820152601c60248201527f444d4d3a20554e414d504c49464945445f504f4f4c5f45584953545300000000604482015290519081900360640190fd5b60405162000aad9062001021565b604051809103906000f08015801562000aca573d6000803e3d6000fd5b5092508273ffffffffffffffffffffffffffffffffffffffff16636ecf2b228383876040518463ffffffff1660e01b8152600401808473ffffffffffffffffffffffffffffffffffffffff1681526020018373ffffffffffffffffffffffffffffffffffffffff1681526020018263ffffffff1681526020019350505050600060405180830381600087803b15801562000b6357600080fd5b505af115801562000b78573d6000803e3d6000fd5b50505073ffffffffffffffffffffffffffffffffffffffff808416600090815260026020908152604080832093861683529290522062000bba91508462000eed565b5073ffffffffffffffffffffffffffffffffffffffff808216600090815260026020908152604080832093861683529290522062000bf9908462000eed565b506127108463ffffffff16141562000c845773ffffffffffffffffffffffffffffffffffffffff8083166000818152600360208181526040808420878716855282528084208054968a167fffffffffffffffffffffffff0000000000000000000000000000000000000000978816811790915592825280842094845293905291902080549092161790555b6004805460018101825560008290527f8a35acfbc15ff81a39ae7d344fd709f28e8600b4aa8c65c6b64bfe7fe36bd19b01805473ffffffffffffffffffffffffffffffffffffffff8087167fffffffffffffffffffffffff0000000000000000000000000000000000000000909216821790925591546040805193845263ffffffff88166020850152838101919091525183821692918516917ffc574402c445e75f2b79b67884ff9c662244dce454c5ae68935fcd0bebb7c8ff919081900360600190a350509392505050565b60015473ffffffffffffffffffffffffffffffffffffffff16331462000dd857604080517f08c379a000000000000000000000000000000000000000000000000000000000815260206004820152600e60248201527f444d4d3a20464f5242494444454e000000000000000000000000000000000000604482015290519081900360640190fd5b6001805473ffffffffffffffffffffffffffffffffffffffff83167fffffffffffffffffffffffff0000000000000000000000000000000000000000909116811790915560408051918252517f66330d9620e4f36ed52d5f7b79fa819b71c33037004c3889a3601b06c68da7cc9181900360200190a150565b60005473ffffffffffffffffffffffffffffffffffffffff8116917401000000000000000000000000000000000000000090910461ffff1690565b73ffffffffffffffffffffffffffffffffffffffff8084166000908152600260209081526040808320938616835292905290812062000801908362000f11565b60045490565b6000620006a38262000f35565b6000620006a0838362000f39565b6000620006a08373ffffffffffffffffffffffffffffffffffffffff841662000fba565b6000620006a08373ffffffffffffffffffffffffffffffffffffffff841662001009565b5490565b8154600090821062000f97576040517f08c379a000000000000000000000000000000000000000000000000000000000815260040180806020018281038252602281526020018062005e296022913960400191505060405180910390fd5b82600001828154811062000fa757fe5b9060005260206000200154905092915050565b600062000fc8838362001009565b6200100057508154600181810184556000848152602080822090930184905584548482528286019093526040902091909155620006a3565b506000620006a3565b60009081526001919091016020526040902054151590565b614df980620010308339019056fe60806040523480156200001157600080fd5b5060006040518060400160405280600b81526020016a04b79626572444d4d204c560ac1b815250604051806040016040528060068152602001650444d4d2d4c560d41b815250604051806040016040528060018152602001603160f81b815250828281600390805190602001906200008b929190620001ee565b508051620000a1906004906020840190620001ee565b50506005805460ff19166012179055508251602093840120815191840191909120604080517f8b73c3c69bb8fe3d512ecc4cf759cc79239f7b179b0ffacaa9a75d522b39400f818701528082019390935260608301919091524660808301523060a0808401919091528151808403909101815260c09092019052805192019190912060065550600160085560098054600160801b6001600160801b038085169182026001600160801b03199093169190911716179055620001624362000198565b600a80546001600160801b03928316600160801b02921691909117905550600b80546001600160a01b0319163317905562000280565b60006001600160801b03821115620001ea576040805162461bcd60e51b815260206004820152601060248201526f0deeccae4ccd8deee40ead2dce86264760831b604482015290519081900360640190fd5b5090565b828054600181600116156101000203166002900490600052602060002090601f016020900481019282601f106200023157805160ff191683800117855562000261565b8280016001018555821562000261579182015b828111156200026157825182559160200191906001019062000244565b50620001ea9291505b80821115620001ea57600081556001016200026a565b614b6980620002906000396000f3fe608060405234801561001057600080fd5b50600436106101da5760003560e01c80637464fc3d11610104578063bc25cf77116100a2578063d669402711610071578063d669402714610736578063dd62ed3e14610780578063f698da25146107bb578063fff6cae9146107c3576101da565b8063bc25cf7714610695578063c45a0155146106c8578063d21220a7146106d0578063d505accf146106d8576101da565b806395d89b41116100de57806395d89b4114610613578063a457c2d71461061b578063a9059cbb14610654578063ba9a7a561461068d576101da565b80637464fc3d1461058c5780637ecebe001461059457806389afcb44146105c7576101da565b806323b872dd1161017c57806349386b161161014b57806349386b16146104bb5780636a627842146104dc5780636ecf2b221461050f57806370a0823114610559576101da565b806323b872dd1461041957806330adf81f1461045c578063313ce567146104645780633950935114610482576101da565b8063095ea7b3116101b8578063095ea7b31461033c5780630d94d50b146103895780630dfe1681146103ce57806318160ddd146103ff576101da565b8063022c0d9f146101df57806306fdde031461027a5780630902f1ac146102f7575b600080fd5b610278600480360360808110156101f557600080fd5b81359160208101359173ffffffffffffffffffffffffffffffffffffffff604083013516919081019060808101606082013564010000000081111561023957600080fd5b82018360208201111561024b57600080fd5b8035906020019184600183028401116401000000008311171561026d57600080fd5b5090925090506107cb565b005b610282610e6a565b6040805160208082528351818301528351919283929083019185019080838360005b838110156102bc5781810151838201526020016102a4565b50505050905090810190601f1680156102e95780820380516001836020036101000a031916815260200191505b509250505060405180910390f35b6102ff611282565b60405180836dffffffffffffffffffffffffffff168152602001826dffffffffffffffffffffffffffff1681526020019250505060405180910390f35b6103756004803603604081101561035257600080fd5b5073ffffffffffffffffffffffffffffffffffffffff81351690602001356112af565b604080519115158252519081900360200190f35b6103916112cd565b604080516fffffffffffffffffffffffffffffffff9586168152938516602085015291841683830152909216606082015290519081900360800190f35b6103d661130c565b6040805173ffffffffffffffffffffffffffffffffffffffff9092168252519081900360200190f35b610407611328565b60408051918252519081900360200190f35b6103756004803603606081101561042f57600080fd5b5073ffffffffffffffffffffffffffffffffffffffff81358116916020810135909116906040013561132e565b6104076113d0565b61046c6113f4565b6040805160ff9092168252519081900360200190f35b6103756004803603604081101561049857600080fd5b5073ffffffffffffffffffffffffffffffffffffffff81351690602001356113fd565b6104c3611458565b6040805163ffffffff9092168252519081900360200190f35b610407600480360360208110156104f257600080fd5b503573ffffffffffffffffffffffffffffffffffffffff16611484565b6102786004803603606081101561052557600080fd5b50803573ffffffffffffffffffffffffffffffffffffffff908116916020810135909116906040013563ffffffff166118f4565b6104076004803603602081101561056f57600080fd5b503573ffffffffffffffffffffffffffffffffffffffff16611a22565b610407611a4e565b610407600480360360208110156105aa57600080fd5b503573ffffffffffffffffffffffffffffffffffffffff16611a54565b6105fa600480360360208110156105dd57600080fd5b503573ffffffffffffffffffffffffffffffffffffffff16611a66565b6040805192835260208301919091528051918290030190f35b61028261204f565b6103756004803603604081101561063157600080fd5b5073ffffffffffffffffffffffffffffffffffffffff8135169060200135612397565b6103756004803603604081101561066a57600080fd5b5073ffffffffffffffffffffffffffffffffffffffff813516906020013561240c565b610407612420565b610278600480360360208110156106ab57600080fd5b503573ffffffffffffffffffffffffffffffffffffffff16612426565b6103d6612648565b6103d6612664565b610278600480360360e08110156106ee57600080fd5b5073ffffffffffffffffffffffffffffffffffffffff813581169160208101359091169060408101359060608101359060ff6080820135169060a08101359060c00135612680565b61073e61294c565b604080516dffffffffffffffffffffffffffff968716815294861660208601529285168484015293166060830152608082019290925290519081900360a00190f35b6104076004803603604081101561079657600080fd5b5073ffffffffffffffffffffffffffffffffffffffff813581169160200135166129e8565b610407612a20565b610278612a26565b6002600854141561083d57604080517f08c379a000000000000000000000000000000000000000000000000000000000815260206004820152601f60248201527f5265656e7472616e637947756172643a207265656e7472616e742063616c6c00604482015290519081900360640190fd5b6002600855841515806108505750600084115b6108bb57604080517f08c379a000000000000000000000000000000000000000000000000000000000815260206004820152601f60248201527f444d4d3a20494e53554646494349454e545f4f55545055545f414d4f554e5400604482015290519081900360640190fd5b60006108c5614912565b6108cd612ce3565b80519193509150871080156108e55750806020015186105b61095057604080517f08c379a000000000000000000000000000000000000000000000000000000000815260206004820152601b60248201527f444d4d3a20494e53554646494349454e545f4c49515549444954590000000000604482015290519081900360640190fd5b610958614912565b600c54600d5473ffffffffffffffffffffffffffffffffffffffff9182169190811690881682148015906109b857508073ffffffffffffffffffffffffffffffffffffffff168873ffffffffffffffffffffffffffffffffffffffff1614155b610a2357604080517f08c379a000000000000000000000000000000000000000000000000000000000815260206004820152600f60248201527f444d4d3a20494e56414c49445f544f0000000000000000000000000000000000604482015290519081900360640190fd5b8915610a4a57610a4a73ffffffffffffffffffffffffffffffffffffffff8316898c612d87565b8815610a7157610a7173ffffffffffffffffffffffffffffffffffffffff8216898b612d87565b8515610b3d578773ffffffffffffffffffffffffffffffffffffffff166381279c7e338c8c8b8b6040518663ffffffff1660e01b8152600401808673ffffffffffffffffffffffffffffffffffffffff168152602001858152602001848152602001806020018281038252848482818152602001925080828437600081840152601f19601f8201169050808301925050509650505050505050600060405180830381600087803b158015610b2457600080fd5b505af1158015610b38573d6000803e3d6000fd5b505050505b604080517f70a08231000000000000000000000000000000000000000000000000000000008152306004820152905173ffffffffffffffffffffffffffffffffffffffff8416916370a08231916024808301926020929190829003018186803b158015610ba957600080fd5b505afa158015610bbd573d6000803e3d6000fd5b505050506040513d6020811015610bd357600080fd5b50518352604080517f70a08231000000000000000000000000000000000000000000000000000000008152306004820152905173ffffffffffffffffffffffffffffffffffffffff8316916370a08231916024808301926020929190829003018186803b158015610c4357600080fd5b505afa158015610c57573d6000803e3d6000fd5b505050506040513d6020811015610c6d57600080fd5b505160208401528415610cc157835183516040860151610c989291610c929190612e19565b90612e8d565b6040840152602080850151908401516060860151610cbb9291610c929190612e19565b60608401525b5050815181516000918a900310610cd9576000610ce4565b82518251908a900390035b9050600088846020015103836020015111610d00576000610d0e565b888460200151038360200151035b90506000821180610d1f5750600081115b610d8a57604080517f08c379a000000000000000000000000000000000000000000000000000000000815260206004820152601e60248201527f444d4d3a20494e53554646494349454e545f494e5055545f414d4f554e540000604482015290519081900360640190fd5b6000610de4838388610d9d578751610da3565b87604001515b89610db2578860200151610db8565b88606001515b8a610dc4578851610dca565b88604001515b8b610dd9578960200151610ddf565b89606001515b612f04565b9050610df08685613069565b60408051848152602081018490528082018d9052606081018c905260808101839052905173ffffffffffffffffffffffffffffffffffffffff8b169133917f606ecd02b3e3b4778f8e97b2e03351de14224efaa5fa64e62200afc9395c24999181900360a00190a350506001600855505050505050505050565b600c54600d54604080517f95d89b41000000000000000000000000000000000000000000000000000000008152905160609373ffffffffffffffffffffffffffffffffffffffff90811693169183916395d89b4191600480820192600092909190829003018186803b158015610edf57600080fd5b505afa158015610ef3573d6000803e3d6000fd5b505050506040513d6000823e601f3d9081017fffffffffffffffffffffffffffffffffffffffffffffffffffffffffffffffe01682016040526020811015610f3a57600080fd5b8101908080516040519392919084640100000000821115610f5a57600080fd5b908301906020820185811115610f6f57600080fd5b8251640100000000811182820188101715610f8957600080fd5b82525081516020918201929091019080838360005b83811015610fb6578181015183820152602001610f9e565b50505050905090810190601f168015610fe35780820380516001836020036101000a031916815260200191505b506040525050508173ffffffffffffffffffffffffffffffffffffffff166395d89b416040518163ffffffff1660e01b815260040160006040518083038186803b15801561103057600080fd5b505afa158015611044573d6000803e3d6000fd5b505050506040513d6000823e601f3d9081017fffffffffffffffffffffffffffffffffffffffffffffffffffffffffffffffe0168201604052602081101561108b57600080fd5b81019080805160405193929190846401000000008211156110ab57600080fd5b9083019060208201858111156110c057600080fd5b82516401000000008111828201881017156110da57600080fd5b82525081516020918201929091019080838360005b838110156111075781810151838201526020016110ef565b50505050905090810190601f1680156111345780820380516001836020036101000a031916815260200191505b5060405250505060405160200180807f4b79626572444d4d204c50200000000000000000000000000000000000000000815250600c0183805190602001908083835b602083106111b357805182527fffffffffffffffffffffffffffffffffffffffffffffffffffffffffffffffe09092019160209182019101611176565b6001836020036101000a038019825116818451168082178552505050505050905001807f2d0000000000000000000000000000000000000000000000000000000000000081525060010182805190602001908083835b6020831061124657805182527fffffffffffffffffffffffffffffffffffffffffffffffffffffffffffffffe09092019160209182019101611209565b6001836020036101000a038019825116818451168082178552505050505050905001925050506040516020818303038152906040529250505090565b600e546dffffffffffffffffffffffffffff808216926e0100000000000000000000000000009092041690565b60006112c36112bc613204565b8484613208565b5060015b92915050565b600954600a546fffffffffffffffffffffffffffffffff8083169370010000000000000000000000000000000093849004821693838316930490911690565b600c5473ffffffffffffffffffffffffffffffffffffffff1681565b60025490565b600061133b84848461334f565b6113c584611347613204565b6113c085604051806060016040528060288152602001614a316028913973ffffffffffffffffffffffffffffffffffffffff8a16600090815260016020526040812090611392613204565b73ffffffffffffffffffffffffffffffffffffffff168152602081019190915260400160002054919061351f565b613208565b5060015b9392505050565b7f6e71edae12b1b97f4d1f60370fef10105fa2faae0126114a169c64845d6126c981565b60055460ff1690565b60006112c361140a613204565b846113c0856001600061141b613204565b73ffffffffffffffffffffffffffffffffffffffff908116825260208083019390935260409182016000908120918c168152925290205490612e19565b600e547c0100000000000000000000000000000000000000000000000000000000900463ffffffff1681565b6000600260085414156114f857604080517f08c379a000000000000000000000000000000000000000000000000000000000815260206004820152601f60248201527f5265656e7472616e637947756172643a207265656e7472616e742063616c6c00604482015290519081900360640190fd5b60026008556000611507614912565b61150f612ce3565b9150915061151b614912565b600c54604080517f70a08231000000000000000000000000000000000000000000000000000000008152306004820152905173ffffffffffffffffffffffffffffffffffffffff909216916370a0823191602480820192602092909190829003018186803b15801561158c57600080fd5b505afa1580156115a0573d6000803e3d6000fd5b505050506040513d60208110156115b657600080fd5b50518152600d54604080517f70a08231000000000000000000000000000000000000000000000000000000008152306004820152905173ffffffffffffffffffffffffffffffffffffffff909216916370a0823191602480820192602092909190829003018186803b15801561162b57600080fd5b505afa15801561163f573d6000803e3d6000fd5b505050506040513d602081101561165557600080fd5b505160208201528151815160009161166d9190612e8d565b9050600061168c84602001518460200151612e8d90919063ffffffff16565b9050600061169a86866135d0565b905060006116a6611328565b90508061177457861561172957600e54855163ffffffff7c0100000000000000000000000000000000000000000000000000000000909204821691612710916116f19184906137b516565b816116f857fe5b04604087015260208601516127109061171a9063ffffffff808516906137b516565b8161172157fe5b046060870152505b6117416103e8610c9261173c87876137b5565b613828565b975061176f7fffffffffffffffffffffffffffffffffffffffffffffffffffffffffffffffff6103e8613879565b611827565b85516117b19061178486846137b5565b8161178b57fe5b0487602001516117a484876137b590919063ffffffff16565b816117ab57fe5b046139aa565b975086156118275760006117c58983612e19565b90506117f4826117e2838a604001516137b590919063ffffffff16565b816117e957fe5b0487600001516139c0565b6040870152606087015161182090839061180e90846137b5565b8161181557fe5b0487602001516139c0565b6060870152505b60008811611880576040517f08c379a0000000000000000000000000000000000000000000000000000000008152600401808060200182810382526022815260200180614a596022913960400191505060405180910390fd5b61188a8989613879565b6118948786613069565b81156118a8576118a487866139d0565b6010555b6040805185815260208101859052815133927f4c209b5fc8ad50758f13e2e1088ba56a560dff690a1c6fef26394f4c03821c4f928290030190a250506001600855509395945050505050565b600b5473ffffffffffffffffffffffffffffffffffffffff16331461197a57604080517f08c379a000000000000000000000000000000000000000000000000000000000815260206004820152600e60248201527f444d4d3a20464f5242494444454e000000000000000000000000000000000000604482015290519081900360640190fd5b600c805473ffffffffffffffffffffffffffffffffffffffff9485167fffffffffffffffffffffffff000000000000000000000000000000000000000091821617909155600d805493909416921691909117909155600e805463ffffffff9092167c0100000000000000000000000000000000000000000000000000000000027bffffffffffffffffffffffffffffffffffffffffffffffffffffffff909216919091179055565b73ffffffffffffffffffffffffffffffffffffffff81166000908152602081905260409020545b919050565b60105481565b60076020526000908152604090205481565b60008060026008541415611adb57604080517f08c379a000000000000000000000000000000000000000000000000000000000815260206004820152601f60248201527f5265656e7472616e637947756172643a207265656e7472616e742063616c6c00604482015290519081900360640190fd5b60026008556000611aea614912565b611af2612ce3565b600c54600d54604080517f70a08231000000000000000000000000000000000000000000000000000000008152306004820152905194965092945073ffffffffffffffffffffffffffffffffffffffff9182169391169160009184916370a08231916024808301926020929190829003018186803b158015611b7357600080fd5b505afa158015611b87573d6000803e3d6000fd5b505050506040513d6020811015611b9d57600080fd5b5051604080517f70a08231000000000000000000000000000000000000000000000000000000008152306004820152905191925060009173ffffffffffffffffffffffffffffffffffffffff8516916370a08231916024808301926020929190829003018186803b158015611c1157600080fd5b505afa158015611c25573d6000803e3d6000fd5b505050506040513d6020811015611c3b57600080fd5b505185519091508210801590611c55575084602001518110155b611cc057604080517f08c379a000000000000000000000000000000000000000000000000000000000815260206004820152601460248201527f444d4d3a20554e53594e435f5245534552564553000000000000000000000000604482015290519081900360640190fd5b6000611ccb30611a22565b90506000611cd988886135d0565b90506000611ce5611328565b905080611cf284876137b5565b81611cf957fe5b049a5080611d0784866137b5565b81611d0e57fe5b04995060008b1180611d20575060008a115b611d75576040517f08c379a00000000000000000000000000000000000000000000000000000000081526004018080602001828103825260228152602001806149ee6022913960400191505060405180910390fd5b611d7f30846139f6565b8a15611da657611da673ffffffffffffffffffffffffffffffffffffffff88168d8d612d87565b8915611dcd57611dcd73ffffffffffffffffffffffffffffffffffffffff87168d8c612d87565b611dd5614912565b604080517f70a08231000000000000000000000000000000000000000000000000000000008152306004820152905173ffffffffffffffffffffffffffffffffffffffff8a16916370a08231916024808301926020929190829003018186803b158015611e4157600080fd5b505afa158015611e55573d6000803e3d6000fd5b505050506040513d6020811015611e6b57600080fd5b50518152604080517f70a08231000000000000000000000000000000000000000000000000000000008152306004820152905173ffffffffffffffffffffffffffffffffffffffff8916916370a08231916024808301926020929190829003018186803b158015611edb57600080fd5b505afa158015611eef573d6000803e3d6000fd5b505050506040513d6020811015611f0557600080fd5b505160208201528915611fad5788518151600091611f4b91611f2790866137b5565b81611f2e57fe5b048b602001516117a48686602001516137b590919063ffffffff16565b9050611f7a83611f68838d604001516137b590919063ffffffff16565b81611f6f57fe5b0483600001516139c0565b604083015260608a0151611fa6908490611f9490846137b5565b81611f9b57fe5b0483602001516139c0565b6060830152505b611fb78a82613069565b8215611fcb57611fc78a826139d0565b6010555b8c73ffffffffffffffffffffffffffffffffffffffff163373ffffffffffffffffffffffffffffffffffffffff167fdccd412f0b1252819cb1fd330b93224ca42612892bb3f4f789976e6d819364968e8e604051808381526020018281526020019250505060405180910390a3505050505050505050506001600881905550915091565b600c54600d54604080517f95d89b41000000000000000000000000000000000000000000000000000000008152905160609373ffffffffffffffffffffffffffffffffffffffff90811693169183916395d89b4191600480820192600092909190829003018186803b1580156120c457600080fd5b505afa1580156120d8573d6000803e3d6000fd5b505050506040513d6000823e601f3d9081017fffffffffffffffffffffffffffffffffffffffffffffffffffffffffffffffe0168201604052602081101561211f57600080fd5b810190808051604051939291908464010000000082111561213f57600080fd5b90830190602082018581111561215457600080fd5b825164010000000081118282018810171561216e57600080fd5b82525081516020918201929091019080838360005b8381101561219b578181015183820152602001612183565b50505050905090810190601f1680156121c85780820380516001836020036101000a031916815260200191505b506040525050508173ffffffffffffffffffffffffffffffffffffffff166395d89b416040518163ffffffff1660e01b815260040160006040518083038186803b15801561221557600080fd5b505afa158015612229573d6000803e3d6000fd5b505050506040513d6000823e601f3d9081017fffffffffffffffffffffffffffffffffffffffffffffffffffffffffffffffe0168201604052602081101561227057600080fd5b810190808051604051939291908464010000000082111561229057600080fd5b9083019060208201858111156122a557600080fd5b82516401000000008111828201881017156122bf57600080fd5b82525081516020918201929091019080838360005b838110156122ec5781810151838201526020016122d4565b50505050905090810190601f1680156123195780820380516001836020036101000a031916815260200191505b5060405250505060405160200180807f444d4d2d4c5020000000000000000000000000000000000000000000000000008152506007018380519060200190808383602083106111b357805182527fffffffffffffffffffffffffffffffffffffffffffffffffffffffffffffffe09092019160209182019101611176565b60006112c36123a4613204565b846113c085604051806060016040528060258152602001614b0f60259139600160006123ce613204565b73ffffffffffffffffffffffffffffffffffffffff908116825260208083019390935260409182016000908120918d1681529252902054919061351f565b60006112c3612419613204565b848461334f565b6103e881565b6002600854141561249857604080517f08c379a000000000000000000000000000000000000000000000000000000000815260206004820152601f60248201527f5265656e7472616e637947756172643a207265656e7472616e742063616c6c00604482015290519081900360640190fd5b6002600855600e54600c54604080517f70a08231000000000000000000000000000000000000000000000000000000008152306004820152905161257f93859361255f936dffffffffffffffffffffffffffff9092169273ffffffffffffffffffffffffffffffffffffffff909116916370a08231916024808301926020929190829003018186803b15801561252d57600080fd5b505afa158015612541573d6000803e3d6000fd5b505050506040513d602081101561255757600080fd5b505190612e8d565b600c5473ffffffffffffffffffffffffffffffffffffffff169190612d87565b600e54600d54604080517f70a082310000000000000000000000000000000000000000000000000000000081523060048201529051612640938593612620936e0100000000000000000000000000009092046dffffffffffffffffffffffffffff169273ffffffffffffffffffffffffffffffffffffffff909116916370a08231916024808301926020929190829003018186803b15801561252d57600080fd5b600d5473ffffffffffffffffffffffffffffffffffffffff169190612d87565b506001600855565b600b5473ffffffffffffffffffffffffffffffffffffffff1681565b600d5473ffffffffffffffffffffffffffffffffffffffff1681565b428410156126ef57604080517f08c379a000000000000000000000000000000000000000000000000000000000815260206004820152601460248201527f45524332305065726d69743a2045585049524544000000000000000000000000604482015290519081900360640190fd5b60065473ffffffffffffffffffffffffffffffffffffffff80891660008181526007602090815260408083208054600180820190925582517f6e71edae12b1b97f4d1f60370fef10105fa2faae0126114a169c64845d6126c98186015280840196909652958d166060860152608085018c905260a085019590955260c08085018b90528151808603909101815260e0850182528051908301207f19010000000000000000000000000000000000000000000000000000000000006101008601526101028501969096526101228085019690965280518085039096018652610142840180825286519683019690962095839052610162840180825286905260ff89166101828501526101a284018890526101c28401879052519193926101e2808201937fffffffffffffffffffffffffffffffffffffffffffffffffffffffffffffffe081019281900390910190855afa158015612850573d6000803e3d6000fd5b50506040517fffffffffffffffffffffffffffffffffffffffffffffffffffffffffffffffe0015191505073ffffffffffffffffffffffffffffffffffffffff8116158015906128cb57508873ffffffffffffffffffffffffffffffffffffffff168173ffffffffffffffffffffffffffffffffffffffff16145b61293657604080517f08c379a000000000000000000000000000000000000000000000000000000000815260206004820152601e60248201527f45524332305065726d69743a20494e56414c49445f5349474e41545552450000604482015290519081900360640190fd5b612941898989613208565b505050505050505050565b600e54600f546dffffffffffffffffffffffffffff808316926e0100000000000000000000000000008082048316938381169391900416906000907c0100000000000000000000000000000000000000000000000000000000900463ffffffff166127108114156129be578593508492505b60006129c943613b40565b90506129dd6129d782613ce4565b83613ec5565b925050509091929394565b73ffffffffffffffffffffffffffffffffffffffff918216600090815260016020908152604080832093909416825291909152205490565b60065481565b60026008541415612a9857604080517f08c379a000000000000000000000000000000000000000000000000000000000815260206004820152601f60248201527f5265656e7472616e637947756172643a207265656e7472616e742063616c6c00604482015290519081900360640190fd5b60026008556000612aa7614912565b612aaf612ce3565b915091506000612abf83836135d0565b9050612ac9614912565b600c54604080517f70a08231000000000000000000000000000000000000000000000000000000008152306004820152905173ffffffffffffffffffffffffffffffffffffffff909216916370a0823191602480820192602092909190829003018186803b158015612b3a57600080fd5b505afa158015612b4e573d6000803e3d6000fd5b505050506040513d6020811015612b6457600080fd5b50518152600d54604080517f70a08231000000000000000000000000000000000000000000000000000000008152306004820152905173ffffffffffffffffffffffffffffffffffffffff909216916370a0823191602480820192602092909190829003018186803b158015612bd957600080fd5b505afa158015612bed573d6000803e3d6000fd5b505050506040513d6020811015612c0357600080fd5b505160208201528315612cba576000612c1a611328565b84518351919250600091612c579190612c3390856137b5565b81612c3a57fe5b0486602001516117a48587602001516137b590919063ffffffff16565b9050612c8682612c748388604001516137b590919063ffffffff16565b81612c7b57fe5b0484600001516139c0565b60408401526060850151612cb2908390612ca090846137b5565b81612ca757fe5b0484602001516139c0565b606084015250505b612cc48482613069565b8115612cd857612cd484826139d0565b6010555b505060016008555050565b6000612ced614912565b600e546dffffffffffffffffffffffffffff80821683526e010000000000000000000000000000820416602083015263ffffffff7c0100000000000000000000000000000000000000000000000000000000909104166127101480159250612d8357600f546dffffffffffffffffffffffffffff80821660408401526e0100000000000000000000000000009091041660608201525b9091565b6040805173ffffffffffffffffffffffffffffffffffffffff8416602482015260448082018490528251808303909101815260649091019091526020810180517bffffffffffffffffffffffffffffffffffffffffffffffffffffffff167fa9059cbb00000000000000000000000000000000000000000000000000000000179052612e14908490613f21565b505050565b6000828201838110156113c957604080517f08c379a000000000000000000000000000000000000000000000000000000000815260206004820152601b60248201527f536166654d6174683a206164646974696f6e206f766572666c6f770000000000604482015290519081900360640190fd5b600082821115612efe57604080517f08c379a000000000000000000000000000000000000000000000000000000000815260206004820152601e60248201527f536166654d6174683a207375627472616374696f6e206f766572666c6f770000604482015290519081900360640190fd5b50900390565b600080612f2588612f1f87612f198a8c6137b5565b90613ff9565b90612e19565b90506000612f33438361407a565b9050612f6f612f4182613ce4565b600e547c0100000000000000000000000000000000000000000000000000000000900463ffffffff16613ec5565b92506000612f8586670de0b6b3a76400006137b5565b9050612f9b612f948b866137b5565b8290612e8d565b9050670de0b6b3a7640000810490506000612fbe86670de0b6b3a76400006137b5565b9050612fcd612f948b876137b5565b670de0b6b3a764000090049050612fe489896137b5565b612fee83836137b5565b101561305b57604080517f08c379a000000000000000000000000000000000000000000000000000000000815260206004820152600660248201527f444d4d3a204b0000000000000000000000000000000000000000000000000000604482015290519081900360640190fd5b505050509695505050505050565b8051613074906143cd565b600e80547fffffffffffffffffffffffffffffffffffff0000000000000000000000000000166dffffffffffffffffffffffffffff9290921691909117905560208101516130c1906143cd565b600e806101000a8154816dffffffffffffffffffffffffffff02191690836dffffffffffffffffffffffffffff16021790555081156131ac57805160408201511080159061311757508060200151816060015110155b61311d57fe5b61312a81604001516143cd565b600f80547fffffffffffffffffffffffffffffffffffff0000000000000000000000000000166dffffffffffffffffffffffffffff929092169190911790556060810151613177906143cd565b600f600e6101000a8154816dffffffffffffffffffffffffffff02191690836dffffffffffffffffffffffffffff1602179055505b6040808201516060808401518451602080870151865195865290850192909252838501529082015290517f2f9d55abfefdfd4c3a83e00a1b419b3c2fe4b83100c559f0e2213e57f6e0bba99181900360800190a15050565b3390565b73ffffffffffffffffffffffffffffffffffffffff8316613274576040517f08c379a0000000000000000000000000000000000000000000000000000000008152600401808060200182810382526024815260200180614ac16024913960400191505060405180910390fd5b73ffffffffffffffffffffffffffffffffffffffff82166132e0576040517f08c379a00000000000000000000000000000000000000000000000000000000081526004018080602001828103825260228152602001806149806022913960400191505060405180910390fd5b73ffffffffffffffffffffffffffffffffffffffff808416600081815260016020908152604080832094871680845294825291829020859055815185815291517f8c5be1e5ebec7d5bd14f71427d1e84f3dd0314c0f7b2291e5b200ac8c7c3b9259281900390910190a3505050565b73ffffffffffffffffffffffffffffffffffffffff83166133bb576040517f08c379a0000000000000000000000000000000000000000000000000000000008152600401808060200182810382526025815260200180614a9c6025913960400191505060405180910390fd5b73ffffffffffffffffffffffffffffffffffffffff8216613427576040517f08c379a000000000000000000000000000000000000000000000000000000000815260040180806020018281038252602381526020018061493b6023913960400191505060405180910390fd5b613432838383612e14565b61347c816040518060600160405280602681526020016149a26026913973ffffffffffffffffffffffffffffffffffffffff8616600090815260208190526040902054919061351f565b73ffffffffffffffffffffffffffffffffffffffff80851660009081526020819052604080822093909355908416815220546134b89082612e19565b73ffffffffffffffffffffffffffffffffffffffff8084166000818152602081815260409182902094909455805185815290519193928716927fddf252ad1be2c89b69c2b068fc378daa952ba7f163c4a11628f55a4df523b3ef92918290030190a3505050565b600081848411156135c8576040517f08c379a00000000000000000000000000000000000000000000000000000000081526004018080602001828103825283818151815260200191508051906020019080838360005b8381101561358d578181015183820152602001613575565b50505050905090810190601f1680156135ba5780820380516001836020036101000a031916815260200191505b509250505060405180910390fd5b505050900390565b6000806000600b60009054906101000a900473ffffffffffffffffffffffffffffffffffffffff1673ffffffffffffffffffffffffffffffffffffffff1663ad5cb2e16040518163ffffffff1660e01b8152600401604080518083038186803b15801561363c57600080fd5b505afa158015613650573d6000803e3d6000fd5b505050506040513d604081101561366657600080fd5b50805160209091015160105473ffffffffffffffffffffffffffffffffffffffff83161515955091935091506000866136a05785516136a6565b85604001515b90506000876136b95786602001516136bf565b86606001515b9050851561379e578215613799576000838302848482816136dc57fe5b041415613701576136fa6136f361173c8386613ff9565b8590612e8d565b915061371e565b61371b6136f361173c866137158988613ff9565b906137b5565b91505b600061374661373e85612f19888e602001516137b590919063ffffffff16565b8b5190612e19565b9050600061375e8861ffff1661371586613715611328565b905060006137726113886137158588612e8d565b9050600081838161377f57fe5b0490508015613792576137928b82613879565b5050505050505b6137aa565b82156137aa5760006010555b505050505092915050565b6000826137c4575060006112c7565b828202828482816137d157fe5b04146113c9576040517f08c379a0000000000000000000000000000000000000000000000000000000008152600401808060200182810382526021815260200180614a106021913960400191505060405180910390fd5b6000600382111561386b575080600160028204015b818110156138655780915060028182858161385457fe5b04018161385d57fe5b04905061383d565b50611a49565b8115611a4957506001919050565b73ffffffffffffffffffffffffffffffffffffffff82166138fb57604080517f08c379a000000000000000000000000000000000000000000000000000000000815260206004820152601f60248201527f45524332303a206d696e7420746f20746865207a65726f206164647265737300604482015290519081900360640190fd5b61390760008383612e14565b6002546139149082612e19565b60025573ffffffffffffffffffffffffffffffffffffffff82166000908152602081905260409020546139479082612e19565b73ffffffffffffffffffffffffffffffffffffffff83166000818152602081815260408083209490945583518581529351929391927fddf252ad1be2c89b69c2b068fc378daa952ba7f163c4a11628f55a4df523b3ef9281900390910190a35050565b60008183106139b957816113c9565b5090919050565b6000818310156139b957816113c9565b6000826139e45760208201518251026113c9565b50606081015160409091015102919050565b73ffffffffffffffffffffffffffffffffffffffff8216613a62576040517f08c379a0000000000000000000000000000000000000000000000000000000008152600401808060200182810382526021815260200180614a7b6021913960400191505060405180910390fd5b613a6e82600083612e14565b613ab88160405180606001604052806022815260200161495e6022913973ffffffffffffffffffffffffffffffffffffffff8516600090815260208190526040902054919061351f565b73ffffffffffffffffffffffffffffffffffffffff8316600090815260208190526040902055600254613aeb9082612e8d565b60025560408051828152905160009173ffffffffffffffffffffffffffffffffffffffff8516917fddf252ad1be2c89b69c2b068fc378daa952ba7f163c4a11628f55a4df523b3ef9181900360200190a35050565b600a5460009070010000000000000000000000000000000090046fffffffffffffffffffffffffffffffff16820380613bb157600954613ba9906fffffffffffffffffffffffffffffffff80821691700100000000000000000000000000000000900416614450565b915050611a49565b600954600090613bf8906fffffffffffffffffffffffffffffffff16611519671bc16d674ec800005b600a54919004906fffffffffffffffffffffffffffffffff16614472565b600954909150600090613c3c9070010000000000000000000000000000000090046fffffffffffffffffffffffffffffffff16612a31671bc16d674ec80000613bda565b9050613c8c613c857fffffffffffffffffffffffffffffffffffffffffffffffffffffffffffffffff8501611519671bc16d674ec800005b04670de0b6b3a764000003906144d3565b83906145a4565b9150613ccf613cc87fffffffffffffffffffffffffffffffffffffffffffffffffffffffffffffffff8501612a31671bc16d674ec80000613c74565b82906145a4565b9050613cdb8282614450565b95945050505050565b6000671480cc142da92a848210613d035750661550f7dca70000611a49565b670de0b6b3a76400008210613e0b576710a741a462780000821115613dac577fffffffffffffffffffffffffffffffffffffffffffffffffef58be5b9d88000082016000613d528260036144d3565b9050612710613d9b613d72846009680d8d726b7177a800005b04906145a4565b612f1f613d8b85601b69043c33c1937564800000613d6b565b6801fa48421ec7b1ed0990612e19565b81613da257fe5b0492505050611a49565b6710a741a4627800008290036000613dc58260036144d3565b9050612710613d9b613de2846009680d8d726b7177a80000613d6b565b610c92613dfb85601b69043c33c1937564800000613d6b565b6801fa48421ec7b1ed0990612e8d565b6000670b9a1192183a00008311613e2d57670b9a1192183a0000839003613e51565b7ffffffffffffffffffffffffffffffffffffffffffffffffff465ee6de7c6000083015b9050613e5e8160026144d3565b90506000613e87613e758365b5e620f48000612e19565b612f19674563918244f40000856137b5565b9050670b9a1192183a0000841115613eaf57612710613d9b6801161163ae0de59a9283612e19565b612710613d9b6801161163ae0de59a9283612e8d565b6000614e208263ffffffff1611613edd5750816112c7565b61c3508263ffffffff1611613efb57601e601484025b0490506112c7565b62030d408263ffffffff1611613f1657601e600a8402613ef3565b601e60048402613ef3565b6060613f83826040518060400160405280602081526020017f5361666545524332303a206c6f772d6c6576656c2063616c6c206661696c65648152508573ffffffffffffffffffffffffffffffffffffffff166145c09092919063ffffffff16565b805190915015612e1457808060200190516020811015613fa257600080fd5b5051612e14576040517f08c379a000000000000000000000000000000000000000000000000000000000815260040180806020018281038252602a815260200180614ae5602a913960400191505060405180910390fd5b600080821161406957604080517f08c379a000000000000000000000000000000000000000000000000000000000815260206004820152601a60248201527f536166654d6174683a206469766973696f6e206279207a65726f000000000000604482015290519081900360640190fd5b81838161407257fe5b049392505050565b600a5460009070010000000000000000000000000000000090046fffffffffffffffffffffffffffffffff1683038061417557600a5461410b906140d0906fffffffffffffffffffffffffffffffff1685612e19565b6040518060400160405280601a81526020017f766f6c756d6520657863656564732076616c69642072616e67650000000000008152506145d7565b600a80547fffffffffffffffffffffffffffffffff00000000000000000000000000000000166fffffffffffffffffffffffffffffffff92831617905560095461416d9181811691700100000000000000000000000000000000900416614450565b9150506112c7565b600a546009546fffffffffffffffffffffffffffffffff918216916000916141a99116611519671bc16d674ec80000613bda565b6009549091506000906141ed9070010000000000000000000000000000000090046fffffffffffffffffffffffffffffffff16612a31671bc16d674ec80000613bda565b9050614229613c857fffffffffffffffffffffffffffffffffffffffffffffffffffffffffffffffff8601611519671bc16d674ec80000613c74565b9150614265613cc87fffffffffffffffffffffffffffffffffffffffffffffffffffffffffffffffff8601612a31671bc16d674ec80000613c74565b90506142708261465b565b600980547fffffffffffffffffffffffffffffffff00000000000000000000000000000000166fffffffffffffffffffffffffffffffff929092169190911790556142ba8161465b565b600980546fffffffffffffffffffffffffffffffff9283167001000000000000000000000000000000000292169190911790556142f68661465b565b600a80547fffffffffffffffffffffffffffffffff00000000000000000000000000000000166fffffffffffffffffffffffffffffffff929092169190911790556143408761465b565b600a80546fffffffffffffffffffffffffffffffff9283167001000000000000000000000000000000000290831617905560408051848152602081018490529185168282015260608201869052517f96e2c334d3c0fa98c8b728ee84471864ffe5b28e05f46e52f8a469d0ab3a8b8b9181900360800190a16143c28282614450565b979650505050505050565b60006dffffffffffffffffffffffffffff82111561444c57604080517f08c379a000000000000000000000000000000000000000000000000000000000815260206004820152600d60248201527f444d4d3a204f564552464c4f5700000000000000000000000000000000000000604482015290519081900360640190fd5b5090565b60008161445f575060006112c7565b81670de0b6b3a764000084028161407257fe5b6000670de0b6b3a7640000831061448557fe5b670de0b6b3a7640000826fffffffffffffffffffffffffffffffff168402856fffffffffffffffffffffffffffffffff1685670de0b6b3a7640000030201816144ca57fe5b04949350505050565b6000670de0b6b3a764000083111561454c57604080517f08c379a000000000000000000000000000000000000000000000000000000000815260206004820152601660248201527f4d6174684578743a2078203e20505245434953494f4e00000000000000000000604482015290519081900360640190fd5b6002820661456257670de0b6b3a7640000614564565b825b90506002820491505b81156112c757670de0b6b3a7640000838002049250600282061561459957670de0b6b3a7640000908302045b60028204915061456d565b6000670de0b6b3a76400006145b984846137b5565b8161407257fe5b60606145cf84846000856146dc565b949350505050565b6000816fffffffffffffffffffffffffffffffff841115614653576040517f08c379a000000000000000000000000000000000000000000000000000000000815260206004820181815283516024840152835190928392604490910191908501908083836000831561358d578181015183820152602001613575565b509192915050565b60006fffffffffffffffffffffffffffffffff82111561444c57604080517f08c379a000000000000000000000000000000000000000000000000000000000815260206004820152601060248201527f6f766572666c6f772075696e7431323800000000000000000000000000000000604482015290519081900360640190fd5b606082471015614737576040517f08c379a00000000000000000000000000000000000000000000000000000000081526004018080602001828103825260268152602001806149c86026913960400191505060405180910390fd5b6147408561488c565b6147ab57604080517f08c379a000000000000000000000000000000000000000000000000000000000815260206004820152601d60248201527f416464726573733a2063616c6c20746f206e6f6e2d636f6e7472616374000000604482015290519081900360640190fd5b600060608673ffffffffffffffffffffffffffffffffffffffff1685876040518082805190602001908083835b6020831061481557805182527fffffffffffffffffffffffffffffffffffffffffffffffffffffffffffffffe090920191602091820191016147d8565b6001836020036101000a03801982511681845116808217855250505050505090500191505060006040518083038185875af1925050503d8060008114614877576040519150601f19603f3d011682016040523d82523d6000602084013e61487c565b606091505b50915091506143c2828286614892565b3b151590565b606083156148a15750816113c9565b8251156148b15782518084602001fd5b6040517f08c379a000000000000000000000000000000000000000000000000000000000815260206004820181815284516024840152845185939192839260440191908501908083836000831561358d578181015183820152602001613575565b604051806080016040528060008152602001600081526020016000815260200160008152509056fe45524332303a207472616e7366657220746f20746865207a65726f206164647265737345524332303a206275726e20616d6f756e7420657863656564732062616c616e636545524332303a20617070726f766520746f20746865207a65726f206164647265737345524332303a207472616e7366657220616d6f756e7420657863656564732062616c616e6365416464726573733a20696e73756666696369656e742062616c616e636520666f722063616c6c444d4d3a20494e53554646494349454e545f4c49515549444954595f4255524e4544536166654d6174683a206d756c7469706c69636174696f6e206f766572666c6f7745524332303a207472616e7366657220616d6f756e74206578636565647320616c6c6f77616e6365444d4d3a20494e53554646494349454e545f4c49515549444954595f4d494e54454445524332303a206275726e2066726f6d20746865207a65726f206164647265737345524332303a207472616e736665722066726f6d20746865207a65726f206164647265737345524332303a20617070726f76652066726f6d20746865207a65726f20616464726573735361666545524332303a204552433230206f7065726174696f6e20646964206e6f74207375636365656445524332303a2064656372656173656420616c6c6f77616e63652062656c6f77207a65726fa264697066735822122048367b964f2c9a268e5a675a3fec6801c7a187b48c9098e18a1e0f26f4b9c2f564736f6c634300060c0033456e756d657261626c655365743a20696e646578206f7574206f6620626f756e6473a2646970667358221220ca5825e976bcd65cf0faa20f3f3a8283dcb82b2f4f7f63db5bc416e7ff14ac9b64736f6c634300060c0033",
  "devdoc": {
    "kind": "dev",
    "methods": {},
    "version": 1
  },
  "userdoc": {
    "kind": "user",
    "methods": {},
    "version": 1
  },
  "storageLayout": {
    "storage": [
      {
        "astId": 2995,
        "contract": "contracts/DMMFactory.sol:DMMFactory",
        "label": "feeTo",
        "offset": 0,
        "slot": "0",
        "type": "t_address"
      },
      {
        "astId": 2997,
        "contract": "contracts/DMMFactory.sol:DMMFactory",
        "label": "governmentFeeBps",
        "offset": 20,
        "slot": "0",
        "type": "t_uint16"
      },
      {
        "astId": 3000,
        "contract": "contracts/DMMFactory.sol:DMMFactory",
        "label": "feeToSetter",
        "offset": 0,
        "slot": "1",
        "type": "t_address"
      },
      {
        "astId": 3006,
        "contract": "contracts/DMMFactory.sol:DMMFactory",
        "label": "tokenPools",
        "offset": 0,
        "slot": "2",
        "type": "t_mapping(t_contract(IERC20)1118,t_mapping(t_contract(IERC20)1118,t_struct(AddressSet)1926_storage))"
      },
      {
        "astId": 3013,
        "contract": "contracts/DMMFactory.sol:DMMFactory",
        "label": "getUnamplifiedPool",
        "offset": 0,
        "slot": "3",
        "type": "t_mapping(t_contract(IERC20)1118,t_mapping(t_contract(IERC20)1118,t_address))"
      },
      {
        "astId": 3017,
        "contract": "contracts/DMMFactory.sol:DMMFactory",
        "label": "allPools",
        "offset": 0,
        "slot": "4",
        "type": "t_array(t_address)dyn_storage"
      }
    ],
    "types": {
      "t_address": {
        "encoding": "inplace",
        "label": "address",
        "numberOfBytes": "20"
      },
      "t_array(t_address)dyn_storage": {
        "base": "t_address",
        "encoding": "dynamic_array",
        "label": "address[]",
        "numberOfBytes": "32"
      },
      "t_array(t_bytes32)dyn_storage": {
        "base": "t_bytes32",
        "encoding": "dynamic_array",
        "label": "bytes32[]",
        "numberOfBytes": "32"
      },
      "t_bytes32": {
        "encoding": "inplace",
        "label": "bytes32",
        "numberOfBytes": "32"
      },
      "t_contract(IERC20)1118": {
        "encoding": "inplace",
        "label": "contract IERC20",
        "numberOfBytes": "20"
      },
      "t_mapping(t_bytes32,t_uint256)": {
        "encoding": "mapping",
        "key": "t_bytes32",
        "label": "mapping(bytes32 => uint256)",
        "numberOfBytes": "32",
        "value": "t_uint256"
      },
      "t_mapping(t_contract(IERC20)1118,t_address)": {
        "encoding": "mapping",
        "key": "t_contract(IERC20)1118",
        "label": "mapping(contract IERC20 => address)",
        "numberOfBytes": "32",
        "value": "t_address"
      },
      "t_mapping(t_contract(IERC20)1118,t_mapping(t_contract(IERC20)1118,t_address))": {
        "encoding": "mapping",
        "key": "t_contract(IERC20)1118",
        "label": "mapping(contract IERC20 => mapping(contract IERC20 => address))",
        "numberOfBytes": "32",
        "value": "t_mapping(t_contract(IERC20)1118,t_address)"
      },
      "t_mapping(t_contract(IERC20)1118,t_mapping(t_contract(IERC20)1118,t_struct(AddressSet)1926_storage))": {
        "encoding": "mapping",
        "key": "t_contract(IERC20)1118",
        "label": "mapping(contract IERC20 => mapping(contract IERC20 => struct EnumerableSet.AddressSet))",
        "numberOfBytes": "32",
        "value": "t_mapping(t_contract(IERC20)1118,t_struct(AddressSet)1926_storage)"
      },
      "t_mapping(t_contract(IERC20)1118,t_struct(AddressSet)1926_storage)": {
        "encoding": "mapping",
        "key": "t_contract(IERC20)1118",
        "label": "mapping(contract IERC20 => struct EnumerableSet.AddressSet)",
        "numberOfBytes": "32",
        "value": "t_struct(AddressSet)1926_storage"
      },
      "t_struct(AddressSet)1926_storage": {
        "encoding": "inplace",
        "label": "struct EnumerableSet.AddressSet",
        "members": [
          {
            "astId": 1925,
            "contract": "contracts/DMMFactory.sol:DMMFactory",
            "label": "_inner",
            "offset": 0,
            "slot": "0",
            "type": "t_struct(Set)1661_storage"
          }
        ],
        "numberOfBytes": "64"
      },
      "t_struct(Set)1661_storage": {
        "encoding": "inplace",
        "label": "struct EnumerableSet.Set",
        "members": [
          {
            "astId": 1656,
            "contract": "contracts/DMMFactory.sol:DMMFactory",
            "label": "_values",
            "offset": 0,
            "slot": "0",
            "type": "t_array(t_bytes32)dyn_storage"
          },
          {
            "astId": 1660,
            "contract": "contracts/DMMFactory.sol:DMMFactory",
            "label": "_indexes",
            "offset": 0,
            "slot": "1",
            "type": "t_mapping(t_bytes32,t_uint256)"
          }
        ],
        "numberOfBytes": "64"
      },
      "t_uint16": {
        "encoding": "inplace",
        "label": "uint16",
        "numberOfBytes": "2"
      },
      "t_uint256": {
        "encoding": "inplace",
        "label": "uint256",
        "numberOfBytes": "32"
      }
    }
  }
}