{
  "address": "0x04F7FB75A7c517d17b13C6428b1394af46a339F4",
  "abi": [
    {
      "inputs": [
        {
          "internalType": "contract IDMMFactory",
          "name": "_factory",
          "type": "address"
        },
        {
          "internalType": "address",
          "name": "_weth",
          "type": "address"
        }
      ],
      "stateMutability": "nonpayable",
      "type": "constructor"
    },
    {
      "inputs": [
        {
          "internalType": "contract IERC20",
          "name": "tokenIn",
          "type": "address"
        },
        {
          "internalType": "contract IERC20",
          "name": "tokenOut",
          "type": "address"
        },
        {
          "internalType": "address",
          "name": "pool",
          "type": "address"
        },
        {
          "internalType": "uint256",
          "name": "userIn",
          "type": "uint256"
        }
      ],
      "name": "calculateSwapAmounts",
      "outputs": [
        {
          "internalType": "uint256",
          "name": "amountSwap",
          "type": "uint256"
        },
        {
          "internalType": "uint256",
          "name": "amountOutput",
          "type": "uint256"
        }
      ],
      "stateMutability": "view",
      "type": "function"
    },
    {
      "inputs": [
        {
          "internalType": "contract IERC20",
          "name": "tokenIn",
          "type": "address"
        },
        {
          "internalType": "contract IERC20",
          "name": "tokenOut",
          "type": "address"
        },
        {
          "internalType": "address",
          "name": "pool",
          "type": "address"
        },
        {
          "internalType": "uint256",
          "name": "userIn",
          "type": "uint256"
        }
      ],
      "name": "calculateZapInAmounts",
      "outputs": [
        {
          "internalType": "uint256",
          "name": "tokenInAmount",
          "type": "uint256"
        },
        {
          "internalType": "uint256",
          "name": "tokenOutAmount",
          "type": "uint256"
        }
      ],
      "stateMutability": "view",
      "type": "function"
    },
    {
      "inputs": [
        {
          "internalType": "contract IERC20",
          "name": "tokenIn",
          "type": "address"
        },
        {
          "internalType": "contract IERC20",
          "name": "tokenOut",
          "type": "address"
        },
        {
          "internalType": "address",
          "name": "pool",
          "type": "address"
        },
        {
          "internalType": "uint256",
          "name": "lpQty",
          "type": "uint256"
        }
      ],
      "name": "calculateZapOutAmount",
      "outputs": [
        {
          "internalType": "uint256",
          "name": "",
          "type": "uint256"
        }
      ],
      "stateMutability": "view",
      "type": "function"
    },
    {
      "inputs": [],
      "name": "factory",
      "outputs": [
        {
          "internalType": "contract IDMMFactory",
          "name": "",
          "type": "address"
        }
      ],
      "stateMutability": "view",
      "type": "function"
    },
    {
      "inputs": [],
      "name": "weth",
      "outputs": [
        {
          "internalType": "address",
          "name": "",
          "type": "address"
        }
      ],
      "stateMutability": "view",
      "type": "function"
    },
    {
      "inputs": [
        {
          "internalType": "contract IERC20",
          "name": "tokenIn",
          "type": "address"
        },
        {
          "internalType": "contract IERC20",
          "name": "tokenOut",
          "type": "address"
        },
        {
          "internalType": "uint256",
          "name": "userIn",
          "type": "uint256"
        },
        {
          "internalType": "address",
          "name": "pool",
          "type": "address"
        },
        {
          "internalType": "address",
          "name": "to",
          "type": "address"
        },
        {
          "internalType": "uint256",
          "name": "minLpQty",
          "type": "uint256"
        },
        {
          "internalType": "uint256",
          "name": "deadline",
          "type": "uint256"
        }
      ],
      "name": "zapIn",
      "outputs": [
        {
          "internalType": "uint256",
          "name": "lpQty",
          "type": "uint256"
        }
      ],
      "stateMutability": "nonpayable",
      "type": "function"
    },
    {
      "inputs": [
        {
          "internalType": "contract IERC20",
          "name": "tokenOut",
          "type": "address"
        },
        {
          "internalType": "address",
          "name": "pool",
          "type": "address"
        },
        {
          "internalType": "address",
          "name": "to",
          "type": "address"
        },
        {
          "internalType": "uint256",
          "name": "minLpQty",
          "type": "uint256"
        },
        {
          "internalType": "uint256",
          "name": "deadline",
          "type": "uint256"
        }
      ],
      "name": "zapInEth",
      "outputs": [
        {
          "internalType": "uint256",
          "name": "lpQty",
          "type": "uint256"
        }
      ],
      "stateMutability": "payable",
      "type": "function"
    },
    {
      "inputs": [
        {
          "internalType": "contract IERC20",
          "name": "tokenIn",
          "type": "address"
        },
        {
          "internalType": "contract IERC20",
          "name": "tokenOut",
          "type": "address"
        },
        {
          "internalType": "uint256",
          "name": "liquidity",
          "type": "uint256"
        },
        {
          "internalType": "address",
          "name": "pool",
          "type": "address"
        },
        {
          "internalType": "address",
          "name": "to",
          "type": "address"
        },
        {
          "internalType": "uint256",
          "name": "minTokenOut",
          "type": "uint256"
        },
        {
          "internalType": "uint256",
          "name": "deadline",
          "type": "uint256"
        }
      ],
      "name": "zapOut",
      "outputs": [
        {
          "internalType": "uint256",
          "name": "amountOut",
          "type": "uint256"
        }
      ],
      "stateMutability": "nonpayable",
      "type": "function"
    },
    {
      "inputs": [
        {
          "internalType": "contract IERC20",
          "name": "tokenIn",
          "type": "address"
        },
        {
          "internalType": "uint256",
          "name": "liquidity",
          "type": "uint256"
        },
        {
          "internalType": "address",
          "name": "pool",
          "type": "address"
        },
        {
          "internalType": "address",
          "name": "to",
          "type": "address"
        },
        {
          "internalType": "uint256",
          "name": "minTokenOut",
          "type": "uint256"
        },
        {
          "internalType": "uint256",
          "name": "deadline",
          "type": "uint256"
        }
      ],
      "name": "zapOutEth",
      "outputs": [
        {
          "internalType": "uint256",
          "name": "amountOut",
          "type": "uint256"
        }
      ],
      "stateMutability": "nonpayable",
      "type": "function"
    },
    {
      "inputs": [
        {
          "internalType": "contract IERC20",
          "name": "tokenIn",
          "type": "address"
        },
        {
          "internalType": "uint256",
          "name": "liquidity",
          "type": "uint256"
        },
        {
          "internalType": "address",
          "name": "pool",
          "type": "address"
        },
        {
          "internalType": "address",
          "name": "to",
          "type": "address"
        },
        {
          "internalType": "uint256",
          "name": "minTokenOut",
          "type": "uint256"
        },
        {
          "internalType": "uint256",
          "name": "deadline",
          "type": "uint256"
        },
        {
          "internalType": "bool",
          "name": "approveMax",
          "type": "bool"
        },
        {
          "internalType": "uint8",
          "name": "v",
          "type": "uint8"
        },
        {
          "internalType": "bytes32",
          "name": "r",
          "type": "bytes32"
        },
        {
          "internalType": "bytes32",
          "name": "s",
          "type": "bytes32"
        }
      ],
      "name": "zapOutEthPermit",
      "outputs": [
        {
          "internalType": "uint256",
          "name": "amountOut",
          "type": "uint256"
        }
      ],
      "stateMutability": "nonpayable",
      "type": "function"
    },
    {
      "inputs": [
        {
          "internalType": "contract IERC20",
          "name": "tokenIn",
          "type": "address"
        },
        {
          "internalType": "contract IERC20",
          "name": "tokenOut",
          "type": "address"
        },
        {
          "internalType": "uint256",
          "name": "liquidity",
          "type": "uint256"
        },
        {
          "internalType": "address",
          "name": "pool",
          "type": "address"
        },
        {
          "internalType": "address",
          "name": "to",
          "type": "address"
        },
        {
          "internalType": "uint256",
          "name": "minTokenOut",
          "type": "uint256"
        },
        {
          "internalType": "uint256",
          "name": "deadline",
          "type": "uint256"
        },
        {
          "internalType": "bool",
          "name": "approveMax",
          "type": "bool"
        },
        {
          "internalType": "uint8",
          "name": "v",
          "type": "uint8"
        },
        {
          "internalType": "bytes32",
          "name": "r",
          "type": "bytes32"
        },
        {
          "internalType": "bytes32",
          "name": "s",
          "type": "bytes32"
        }
      ],
      "name": "zapOutPermit",
      "outputs": [
        {
          "internalType": "uint256",
          "name": "amountOut",
          "type": "uint256"
        }
      ],
      "stateMutability": "nonpayable",
      "type": "function"
    },
    {
      "stateMutability": "payable",
      "type": "receive"
    }
  ],
  "transactionHash": "0x8d5b1b4deeb07b7f42508d03a6327ca8b368599333aea5779d67ac092e12615a",
  "args": [
    "0x5D4f75Ac851fC46066f7cEaf92C96FE47F3177ED",
    "0xc778417E063141139Fce010982780140Aa0cD5Ab"
  ],
  "numDeployments": 1,
  "solcInputHash": "14f14d9fe89e453eddb0455134ce8023",
  "bytecode": "0x60c060405234801561001057600080fd5b50604051612b5f380380612b5f8339818101604052604081101561003357600080fd5b5080516020909101516001600160601b0319606092831b8116608052911b1660a05260805160601c60a05160601c612a9c6100c36000398060dd528061060b52806106365280610a215280610ccf5280610d565280610d9c5280610dc95280610e155280610fe7528061101252508061073352806110b5528061125a528061132f52806122725250612a9c6000f3fe6080604052600436106100c05760003560e01c80635ce9303a11610074578063b7b9015d1161004e578063b7b9015d1461044c578063c45a0155146104a2578063d4f9ec73146104b757610106565b80635ce9303a1461032f57806371679309146103995780639711c8c5146103e857610106565b80632bb1a4ec116100a55780632bb1a4ec146101f75780633e6ddaaa146102825780633fc8cef3146102f157610106565b80630fe9b4b61461010b5780631ffbd649146101a157610106565b36610106573373ffffffffffffffffffffffffffffffffffffffff7f0000000000000000000000000000000000000000000000000000000000000000161461010457fe5b005b600080fd5b34801561011757600080fd5b5061018f600480360361014081101561012f57600080fd5b5073ffffffffffffffffffffffffffffffffffffffff8135811691602081013591604082013581169160608101359091169060808101359060a08101359060c081013515159060ff60e08201351690610100810135906101200135610521565b60408051918252519081900360200190f35b3480156101ad57600080fd5b5061018f600480360360808110156101c457600080fd5b5073ffffffffffffffffffffffffffffffffffffffff8135811691602081013582169160408201351690606001356106d8565b34801561020357600080fd5b5061018f600480360361016081101561021b57600080fd5b5073ffffffffffffffffffffffffffffffffffffffff8135811691602081013582169160408201359160608101358216916080820135169060a08101359060c08101359060e081013515159060ff610100820135169061012081013590610140013561085e565b34801561028e57600080fd5b506102d8600480360360808110156102a557600080fd5b5073ffffffffffffffffffffffffffffffffffffffff8135811691602081013582169160408201351690606001356109f4565b6040805192835260208301919091528051918290030190f35b3480156102fd57600080fd5b50610306610a1f565b6040805173ffffffffffffffffffffffffffffffffffffffff9092168252519081900360200190f35b34801561033b57600080fd5b5061018f600480360360e081101561035257600080fd5b5073ffffffffffffffffffffffffffffffffffffffff8135811691602081013582169160408201359160608101358216916080820135169060a08101359060c00135610a43565b61018f600480360360a08110156103af57600080fd5b5073ffffffffffffffffffffffffffffffffffffffff813581169160208101358216916040820135169060608101359060800135610c5b565b3480156103f457600080fd5b5061018f600480360360c081101561040b57600080fd5b5073ffffffffffffffffffffffffffffffffffffffff8135811691602081013591604082013581169160608101359091169060808101359060a00135610f6f565b34801561045857600080fd5b506102d86004803603608081101561046f57600080fd5b5073ffffffffffffffffffffffffffffffffffffffff8135811691602081013582169160408201351690606001356110b0565b3480156104ae57600080fd5b50610306611258565b3480156104c357600080fd5b5061018f600480360360e08110156104da57600080fd5b5073ffffffffffffffffffffffffffffffffffffffff8135811691602081013582169160408201359160608101358216916080820135169060a08101359060c0013561127c565b6000808561052f578a610551565b7fffffffffffffffffffffffffffffffffffffffffffffffffffffffffffffffff5b604080517fd505accf00000000000000000000000000000000000000000000000000000000815233600482015230602482015260448101839052606481018a905260ff8816608482015260a4810187905260c48101869052905191925073ffffffffffffffffffffffffffffffffffffffff8c169163d505accf9160e48082019260009290919082900301818387803b1580156105ed57600080fd5b505af1158015610601573d6000803e3d6000fd5b505050506106328c7f00000000000000000000000000000000000000000000000000000000000000008d8d8c61132a565b91507f000000000000000000000000000000000000000000000000000000000000000073ffffffffffffffffffffffffffffffffffffffff16632e1a7d4d836040518263ffffffff1660e01b815260040180828152602001915050600060405180830381600087803b1580156106a757600080fd5b505af11580156106bb573d6000803e3d6000fd5b505050506106c98983611689565b509a9950505050505050505050565b604080517feb787f6100000000000000000000000000000000000000000000000000000000815273ffffffffffffffffffffffffffffffffffffffff86811660048301528581166024830152848116604483015291516000927f0000000000000000000000000000000000000000000000000000000000000000169163eb787f61916064808301926020929190829003018186803b15801561077957600080fd5b505afa15801561078d573d6000803e3d6000fd5b505050506040513d60208110156107a357600080fd5b505161081057604080517f08c379a000000000000000000000000000000000000000000000000000000000815260206004820152600c60248201527f494e56414c49445f504f4f4c0000000000000000000000000000000000000000604482015290519081900360640190fd5b60008061081b61295c565b610827868989886117c6565b92509250925061084f83826000015183602001518460400151856060015186608001516119bc565b90910192505050949350505050565b600085428110156108d057604080517f08c379a000000000000000000000000000000000000000000000000000000000815260206004820152601260248201527f444d4d526f757465723a20455850495245440000000000000000000000000000604482015290519081900360640190fd5b6000866108dd578b6108ff565b7fffffffffffffffffffffffffffffffffffffffffffffffffffffffffffffffff5b604080517fd505accf00000000000000000000000000000000000000000000000000000000815233600482015230602482015260448101839052606481018b905260ff8916608482015260a4810188905260c48101879052905191925073ffffffffffffffffffffffffffffffffffffffff8d169163d505accf9160e48082019260009290919082900301818387803b15801561099b57600080fd5b505af11580156109af573d6000803e3d6000fd5b505050506109c08e8e8e8e8d61132a565b92506109e373ffffffffffffffffffffffffffffffffffffffff8e168b85611b32565b50509b9a5050505050505050505050565b6000806000610a05878787876110b0565b92509050610a138482611bbf565b92505094509492505050565b7f000000000000000000000000000000000000000000000000000000000000000081565b60008142811015610ab557604080517f08c379a000000000000000000000000000000000000000000000000000000000815260206004820152601260248201527f444d4d526f757465723a20455850495245440000000000000000000000000000604482015290519081900360640190fd5b600080610ac48b8b8a8c6110b0565b9092509050610aeb73ffffffffffffffffffffffffffffffffffffffff8c16338a85611c3b565b610af8818c8c8b30611cd6565b610b263389610b078c86611bbf565b73ffffffffffffffffffffffffffffffffffffffff8f16929190611c3b565b610b4773ffffffffffffffffffffffffffffffffffffffff8b168983611b32565b8773ffffffffffffffffffffffffffffffffffffffff16636a627842886040518263ffffffff1660e01b8152600401808273ffffffffffffffffffffffffffffffffffffffff168152602001915050602060405180830381600087803b158015610bb057600080fd5b505af1158015610bc4573d6000803e3d6000fd5b505050506040513d6020811015610bda57600080fd5b5051935085841015610c4d57604080517f08c379a000000000000000000000000000000000000000000000000000000000815260206004820152601560248201527f494e53554646494349454e545f4d494e545f5154590000000000000000000000604482015290519081900360640190fd5b505050979650505050505050565b60008142811015610ccd57604080517f08c379a000000000000000000000000000000000000000000000000000000000815260206004820152601260248201527f444d4d526f757465723a20455850495245440000000000000000000000000000604482015290519081900360640190fd5b7f000000000000000000000000000000000000000000000000000000000000000073ffffffffffffffffffffffffffffffffffffffff1663d0e30db0346040518263ffffffff1660e01b81526004016000604051808303818588803b158015610d3557600080fd5b505af1158015610d49573d6000803e3d6000fd5b5050505050600080610d7d7f00000000000000000000000000000000000000000000000000000000000000008a8a346110b0565b9092509050610dc373ffffffffffffffffffffffffffffffffffffffff7f0000000000000000000000000000000000000000000000000000000000000000168984611b32565b610df0817f00000000000000000000000000000000000000000000000000000000000000008b8b30611cd6565b610e3c88610dfe3485611bbf565b73ffffffffffffffffffffffffffffffffffffffff7f0000000000000000000000000000000000000000000000000000000000000000169190611b32565b610e5d73ffffffffffffffffffffffffffffffffffffffff8a168983611b32565b8773ffffffffffffffffffffffffffffffffffffffff16636a627842886040518263ffffffff1660e01b8152600401808273ffffffffffffffffffffffffffffffffffffffff168152602001915050602060405180830381600087803b158015610ec657600080fd5b505af1158015610eda573d6000803e3d6000fd5b505050506040513d6020811015610ef057600080fd5b5051935085841015610f6357604080517f08c379a000000000000000000000000000000000000000000000000000000000815260206004820181905260248201527f444d4d526f757465723a20494e53554646494349454e545f4d494e545f515459604482015290519081900360640190fd5b50505095945050505050565b60008142811015610fe157604080517f08c379a000000000000000000000000000000000000000000000000000000000815260206004820152601260248201527f444d4d526f757465723a20455850495245440000000000000000000000000000604482015290519081900360640190fd5b61100e887f000000000000000000000000000000000000000000000000000000000000000089898861132a565b91507f000000000000000000000000000000000000000000000000000000000000000073ffffffffffffffffffffffffffffffffffffffff16632e1a7d4d836040518263ffffffff1660e01b815260040180828152602001915050600060405180830381600087803b15801561108357600080fd5b505af1158015611097573d6000803e3d6000fd5b505050506110a58583611689565b509695505050505050565b6000807f000000000000000000000000000000000000000000000000000000000000000073ffffffffffffffffffffffffffffffffffffffff1663eb787f618787876040518463ffffffff1660e01b8152600401808473ffffffffffffffffffffffffffffffffffffffff1681526020018373ffffffffffffffffffffffffffffffffffffffff1681526020018273ffffffffffffffffffffffffffffffffffffffff168152602001935050505060206040518083038186803b15801561117657600080fd5b505afa15801561118a573d6000803e3d6000fd5b505050506040513d60208110156111a057600080fd5b505161120d57604080517f08c379a000000000000000000000000000000000000000000000000000000000815260206004820152600c60248201527f494e56414c49445f504f4f4c0000000000000000000000000000000000000000604482015290519081900360640190fd5b6000806000806000611220898c8c611e46565b9450945094509450945061123885858585858d611f5a565b96506112488786868686866119bc565b9550505050505094509492505050565b7f000000000000000000000000000000000000000000000000000000000000000081565b600081428110156112ee57604080517f08c379a000000000000000000000000000000000000000000000000000000000815260206004820152601260248201527f444d4d526f757465723a20455850495245440000000000000000000000000000604482015290519081900360640190fd5b6112fb898989898861132a565b915061131e73ffffffffffffffffffffffffffffffffffffffff89168684611b32565b50979650505050505050565b6000807f000000000000000000000000000000000000000000000000000000000000000073ffffffffffffffffffffffffffffffffffffffff1663eb787f618888876040518463ffffffff1660e01b8152600401808473ffffffffffffffffffffffffffffffffffffffff1681526020018373ffffffffffffffffffffffffffffffffffffffff1681526020018273ffffffffffffffffffffffffffffffffffffffff168152602001935050505060206040518083038186803b1580156113f057600080fd5b505afa158015611404573d6000803e3d6000fd5b505050506040513d602081101561141a57600080fd5b505161148757604080517f08c379a000000000000000000000000000000000000000000000000000000000815260206004820152600c60248201527f494e56414c49445f504f4f4c0000000000000000000000000000000000000000604482015290519081900360640190fd5b6114a973ffffffffffffffffffffffffffffffffffffffff8516338688611c3b565b6000808573ffffffffffffffffffffffffffffffffffffffff166389afcb44306040518263ffffffff1660e01b8152600401808273ffffffffffffffffffffffffffffffffffffffff1681526020019150506040805180830381600087803b15801561151457600080fd5b505af1158015611528573d6000803e3d6000fd5b505050506040513d604081101561153e57600080fd5b508051602090910151909250905060006115588a8a61204d565b5090508073ffffffffffffffffffffffffffffffffffffffff168a73ffffffffffffffffffffffffffffffffffffffff1614611595578183611598565b82825b95509350600092508291508190508080806115b48a8e8e611e46565b945094509450945094506115cc8786868686866119bc565b955050505050506115fe85838a73ffffffffffffffffffffffffffffffffffffffff16611b329092919063ffffffff16565b61160b8189898830611cd6565b918201918383101561167e57604080517f08c379a000000000000000000000000000000000000000000000000000000000815260206004820152601a60248201527f494e53554646494349454e545f4f55545055545f414d4f554e54000000000000604482015290519081900360640190fd5b505095945050505050565b6040805160008082526020820190925273ffffffffffffffffffffffffffffffffffffffff84169083906040518082805190602001908083835b6020831061170057805182527fffffffffffffffffffffffffffffffffffffffffffffffffffffffffffffffe090920191602091820191016116c3565b6001836020036101000a03801982511681845116808217855250505050505090500191505060006040518083038185875af1925050503d8060008114611762576040519150601f19603f3d011682016040523d82523d6000602084013e611767565b606091505b50509050806117c1576040517f08c379a00000000000000000000000000000000000000000000000000000000081526004018080602001828103825260238152602001806129f56023913960400191505060405180910390fd5b505050565b6000806117d161295c565b6117d961295c565b6117e4888888611e46565b60808601526060850152604084015260208301528152600061180689836121b6565b905060008973ffffffffffffffffffffffffffffffffffffffff166349386b166040518163ffffffff1660e01b815260040160206040518083038186803b15801561185057600080fd5b505afa158015611864573d6000803e3d6000fd5b505050506040513d602081101561187a57600080fd5b5051835161271063ffffffff92831614159250839161189b918a9161240716565b816118a257fe5b049550816118bd84602001518961240790919063ffffffff16565b816118c457fe5b8451889003865260208086015192909104918290039086015294508015611991578251845160009161192b916118fa9086612407565b8161190157fe5b04856020015161191e86896020015161240790919063ffffffff16565b8161192557fe5b04612481565b905061195a8361194883876040015161240790919063ffffffff16565b8161194f57fe5b048660000151612497565b604086015260608401516119869084906119749084612407565b8161197b57fe5b048660200151612497565b6060860152506119a3565b83516040850152602084015160608501525b5050608090810151908201529196909550909350915050565b6000808711611a16576040517f08c379a0000000000000000000000000000000000000000000000000000000008152600401808060200182810382526025815260200180612a186025913960400191505060405180910390fd5b600086118015611a265750600085115b611a7b576040517f08c379a000000000000000000000000000000000000000000000000000000000815260040180806020018281038252602281526020018061298c6022913960400191505060405180910390fd5b6000611aa3670de0b6b3a7640000611a9d611a968287611bbf565b8b90612407565b906124a7565b90506000611ab18286612407565b90506000611abf8784612528565b9050611acb82826124a7565b9350838811611b25576040517f08c379a000000000000000000000000000000000000000000000000000000000815260040180806020018281038252602281526020018061298c6022913960400191505060405180910390fd5b5050509695505050505050565b6040805173ffffffffffffffffffffffffffffffffffffffff8416602482015260448082018490528251808303909101815260649091019091526020810180517bffffffffffffffffffffffffffffffffffffffffffffffffffffffff167fa9059cbb000000000000000000000000000000000000000000000000000000001790526117c190849061259c565b600082821115611c3057604080517f08c379a000000000000000000000000000000000000000000000000000000000815260206004820152601e60248201527f536166654d6174683a207375627472616374696f6e206f766572666c6f770000604482015290519081900360640190fd5b508082035b92915050565b6040805173ffffffffffffffffffffffffffffffffffffffff80861660248301528416604482015260648082018490528251808303909101815260849091019091526020810180517bffffffffffffffffffffffffffffffffffffffffffffffffffffffff167f23b872dd00000000000000000000000000000000000000000000000000000000179052611cd090859061259c565b50505050565b6000611ce2858561204d565b5090506000808273ffffffffffffffffffffffffffffffffffffffff168773ffffffffffffffffffffffffffffffffffffffff1614611d2357876000611d27565b6000885b60408051600080825260208201928390527f022c0d9f000000000000000000000000000000000000000000000000000000008352602482018581526044830185905273ffffffffffffffffffffffffffffffffffffffff8a81166064850152608060848501908152845160a486018190529799509597508b169563022c0d9f95899589958d9590949360c4860192918190849084905b83811015611dd5578181015183820152602001611dbd565b50505050905090810190601f168015611e025780820380516001836020036101000a031916815260200191505b5095505050505050600060405180830381600087803b158015611e2457600080fd5b505af1158015611e38573d6000803e3d6000fd5b505050505050505050505050565b600080600080600080611e59888861204d565b5090506000806000808c73ffffffffffffffffffffffffffffffffffffffff1663d66940276040518163ffffffff1660e01b815260040160a06040518083038186803b158015611ea857600080fd5b505afa158015611ebc573d6000803e3d6000fd5b505050506040513d60a0811015611ed257600080fd5b50805160208201516040830151606084015160809094015199506dffffffffffffffffffffffffffff928316975090821695508116935016905073ffffffffffffffffffffffffffffffffffffffff8c811690861614611f355782848284611f3a565b838383835b809a50819b50829c50839d50505050505050505050939792965093509350565b6000670de0b6b3a76400008390038180611f7e611f77888b611bbf565b8690612407565b9050611f94611f8d888c612407565b8290612528565b9050670de0b6b3a7640000611fb384611fad848d6124a7565b90612407565b81611fba57fe5b049150611fc78289612528565b915060009050611fd78886612407565b9050600061201e83612018612013670de0b6b3a7640000611ffb8760048b02612407565b8161200257fe5b0461200d8880612407565b90612528565b612674565b90611bbf565b90506002840261203682670de0b6b3a7640000612407565b8161203d57fe5b049b9a5050505050505050505050565b6000808273ffffffffffffffffffffffffffffffffffffffff168473ffffffffffffffffffffffffffffffffffffffff1614156120eb57604080517f08c379a000000000000000000000000000000000000000000000000000000000815260206004820152601f60248201527f444d4d4c6962726172793a204944454e544943414c5f41444452455353455300604482015290519081900360640190fd5b8273ffffffffffffffffffffffffffffffffffffffff168473ffffffffffffffffffffffffffffffffffffffff1610612125578284612128565b83835b909250905073ffffffffffffffffffffffffffffffffffffffff82166121af57604080517f08c379a000000000000000000000000000000000000000000000000000000000815260206004820152601860248201527f444d4d4c6962726172793a205a45524f5f414444524553530000000000000000604482015290519081900360640190fd5b9250929050565b60008273ffffffffffffffffffffffffffffffffffffffff166318160ddd6040518163ffffffff1660e01b815260040160206040518083038186803b1580156121fe57600080fd5b505afa158015612212573d6000803e3d6000fd5b505050506040513d602081101561222857600080fd5b5051604080517fad5cb2e10000000000000000000000000000000000000000000000000000000081528151929350600092839273ffffffffffffffffffffffffffffffffffffffff7f0000000000000000000000000000000000000000000000000000000000000000169263ad5cb2e19260048083019392829003018186803b1580156122b457600080fd5b505afa1580156122c8573d6000803e3d6000fd5b505050506040513d60408110156122de57600080fd5b508051602090910151909250905073ffffffffffffffffffffffffffffffffffffffff821661230e575050611c35565b60008573ffffffffffffffffffffffffffffffffffffffff16637464fc3d6040518163ffffffff1660e01b815260040160206040518083038186803b15801561235657600080fd5b505afa15801561236a573d6000803e3d6000fd5b505050506040513d602081101561238057600080fd5b505190508061239157505050611c35565b600061239c82612674565b905060006123b38760600151886040015102612674565b905060006123d361ffff8616611fad6123cc8587611bbf565b8a90612407565b905060006123e7611388611fad8587612528565b905060008183816123f457fe5b04989098019a9950505050505050505050565b60008261241657506000611c35565b8282028284828161242357fe5b041461247a576040517f08c379a00000000000000000000000000000000000000000000000000000000081526004018080602001828103825260218152602001806129d46021913960400191505060405180910390fd5b9392505050565b6000818310612490578161247a565b5090919050565b600081831015612490578161247a565b600080821161251757604080517f08c379a000000000000000000000000000000000000000000000000000000000815260206004820152601a60248201527f536166654d6174683a206469766973696f6e206279207a65726f000000000000604482015290519081900360640190fd5b81838161252057fe5b049392505050565b60008282018381101561247a57604080517f08c379a000000000000000000000000000000000000000000000000000000000815260206004820152601b60248201527f536166654d6174683a206164646974696f6e206f766572666c6f770000000000604482015290519081900360640190fd5b60606125fe826040518060400160405280602081526020017f5361666545524332303a206c6f772d6c6576656c2063616c6c206661696c65648152508573ffffffffffffffffffffffffffffffffffffffff166126c69092919063ffffffff16565b8051909150156117c15780806020019051602081101561261d57600080fd5b50516117c1576040517f08c379a000000000000000000000000000000000000000000000000000000000815260040180806020018281038252602a815260200180612a3d602a913960400191505060405180910390fd5b600060038211156126b7575080600160028204015b818110156126b1578091506002818285816126a057fe5b0401816126a957fe5b049050612689565b506126c1565b81156126c1575060015b919050565b60606126d584846000856126dd565b949350505050565b606082471015612738576040517f08c379a00000000000000000000000000000000000000000000000000000000081526004018080602001828103825260268152602001806129ae6026913960400191505060405180910390fd5b61274185612898565b6127ac57604080517f08c379a000000000000000000000000000000000000000000000000000000000815260206004820152601d60248201527f416464726573733a2063616c6c20746f206e6f6e2d636f6e7472616374000000604482015290519081900360640190fd5b600060608673ffffffffffffffffffffffffffffffffffffffff1685876040518082805190602001908083835b6020831061281657805182527fffffffffffffffffffffffffffffffffffffffffffffffffffffffffffffffe090920191602091820191016127d9565b6001836020036101000a03801982511681845116808217855250505050505090500191505060006040518083038185875af1925050503d8060008114612878576040519150601f19603f3d011682016040523d82523d6000602084013e61287d565b606091505b509150915061288d82828661289e565b979650505050505050565b3b151590565b606083156128ad57508161247a565b8251156128bd5782518084602001fd5b816040517f08c379a00000000000000000000000000000000000000000000000000000000081526004018080602001828103825283818151815260200191508051906020019080838360005b83811015612921578181015183820152602001612909565b50505050905090810190601f16801561294e5780820380516001836020036101000a031916815260200191505b509250505060405180910390fd5b6040518060a001604052806000815260200160008152602001600081526020016000815260200160008152509056fe444d4d4c6962726172793a20494e53554646494349454e545f4c4951554944495459416464726573733a20696e73756666696369656e742062616c616e636520666f722063616c6c536166654d6174683a206d756c7469706c69636174696f6e206f766572666c6f775472616e7366657248656c7065723a204554485f5452414e534645525f4641494c4544444d4d4c6962726172793a20494e53554646494349454e545f494e5055545f414d4f554e545361666545524332303a204552433230206f7065726174696f6e20646964206e6f742073756363656564a2646970667358221220dff6d584381d5768d12fe53a237c3afe881e2c3755ffd935ca32ae6deebbd7da64736f6c634300060c0033",
  "devdoc": {
    "details": "detail here: https://hackmd.io/vdqxJx8STNqPm0LG8vGWaw",
    "kind": "dev",
    "methods": {
      "zapIn(address,address,uint256,address,address,uint256,uint256)": {
        "details": "swap and add liquidity to a pool with token-weth",
        "params": {
          "deadline": "the last time the transaction can be executed",
          "minLpQty": "min of lp token after swap",
          "pool": "address of the pool",
          "tokenIn": "the input token",
          "tokenOut": "another token of the pool",
          "userIn": "amount of input token"
        }
      },
      "zapInEth(address,address,address,uint256,uint256)": {
        "details": "swap eth to token and then add liquidity to a pool with token-weth",
        "params": {
          "deadline": "the last time the transaction can be executed",
          "minLpQty": "min of lp token after swap",
          "pool": "address of the pool",
          "tokenOut": "another token of the pool - not weth"
        }
      }
    },
    "version": 1
  },
  "userdoc": {
    "kind": "user",
    "methods": {},
    "version": 1
  },
  "storageLayout": {
    "storage": [],
    "types": null
  }
}